[
  [
    "from", [{
      "address": "mszYqVnqKoQx4jcTdJXxwKAissE3Jbrrc1",
      "txId": "a477af6b2667c29670467e4e0728b685ee07b240235771862318e29ddbe58458",
      "outputIndex": 0,
      "script": "OP_DUP OP_HASH160 20 0x88d9931ea73d60eaf7e5671efc0552b912911f2a OP_EQUALVERIFY OP_CHECKSIG",
      "satoshis": 1020000
    }],
    "to", ["mrU9pEmAx26HcbKVrABvgL7AwA5fjNFoDc", 1010000],
    "sign", ["cSBnVM4xvxarwGQuAfQFwqDg9k5tErHUHzgWsEfD4zdwUasvqRVY", 1],
    "serialize", "01000000015884e5db9de218238671572340b207ee85b628074e7e467096c267266baf77a4000000006a473044022027124e7b93ae8a1b5f68ba849a28b056c5f054c8f401343f2bb4e12f7740ac8d022015c587e2aecc157186c009a1153186a93b80bc9a41efab9920d91a42e04ed59f01210223078d2942df62c45621d209fab84ea9a7a23346201b7727b9b45a29c4e76f5effffffff0150690f00000000001976a9147821c0a3768aa9d1a37e16cf76002aef5373f1a888ac00000000"
  ],
  [
    "from", [{
      "txid": "e42447187db5a29d6db161661e4bc66d61c3e499690fe5ea47f87b79ca573986",
      "vout": 1,
      "address": "mgBCJAsvzgT2qNNeXsoECg2uPKrUsZ76up",
      "scriptPubKey": "76a914073b7eae2823efa349e3b9155b8a735526463a0f88ac",
      "amount": 0.01080000
    }],
    "to", ["mn9new5vPYWuVN5m3gUBujfKh1uPQvR9mf", 500000],
    "to", ["mw5ctwgEaNRbxkM4JhXH3rp5AyGvTWDZCD", 570000],
    "sign", ["cSQUuwwJBAg6tYQhzqqLWW115D1s5KFZDyhCF2ffrnukZxMK6rNZ", 1],
    "serialize", "0100000001863957ca797bf847eae50f6999e4c3616dc64b1e6661b16d9da2b57d184724e4010000006a473044022062ebc85d65049be74e04eb40d51a1efe9f69edbcee84bca2b28c78a1a7348ca70220301f16a276182fcf95a54e62c1ef21d5f31c7311cb3d7f3dd1b2f304122b11ce0121039dd446bbc85db6917f39c0b4c295b0f8cce76d1926fa76d7b84e3f7ff1c5eec5ffffffff0220a10700000000001976a91448c819246ae5645ceecd41fbe1aa6202a0a9b5ca88ac90b20800000000001976a914aab76ba4877d696590d94ea3e02948b55294815188ac00000000"
  ],
  [
    "from", [
      [{
        "txid": "a9db84566e0fc9351e86337d2828ab281b25ddc06fab798f6d4b5baef48c02b3",
        "vout": 0,
        "address": "mn9new5vPYWuVN5m3gUBujfKh1uPQvR9mf",
        "account": "",
        "scriptPubKey": "76a91448c819246ae5645ceecd41fbe1aa6202a0a9b5ca88ac",
        "amount": 0.00500000,
        "confirmations": 0
      }, {
        "txid": "a9db84566e0fc9351e86337d2828ab281b25ddc06fab798f6d4b5baef48c02b3",
        "vout": 1,
        "address": "mw5ctwgEaNRbxkM4JhXH3rp5AyGvTWDZCD",
        "account": "",
        "scriptPubKey": "76a914aab76ba4877d696590d94ea3e02948b55294815188ac",
        "amount": 0.00570000,
        "confirmations": 0
      }]
    ],
    "to", ["mtymcCX5KixPjT1zxtg59qewBGWptj9etH", 1060000],
    "sign", [
      ["cPGbA2C54ZZ1sw4dc2ckBE1WqkdrNSbEV8Tkjhi2p1J15oErdgP2", "cSpyve5bXAuyHrNeV9MjTdFz3HLw739yUjjUAUSMe3ppf2qzj2hw"], 1
    ],
    "serialize", "0100000002b3028cf4ae5b4b6d8f79ab6fc0dd251b28ab28287d33861e35c90f6e5684dba9000000006b483045022100fc435a6a05e785ff670c0d444168c58f112e072742aede2a6d2ae3d4f45e007e022046350f920e9071be8334cbb4ddff40cfbe0d133f160a328b13b694ad6dbab4cc0121030253c73236acf5ea9085d408220141197f6094de07426bd0d32c7a543614fdd7ffffffffb3028cf4ae5b4b6d8f79ab6fc0dd251b28ab28287d33861e35c90f6e5684dba9010000006b483045022100dafc9615ad352956d1ab2d2460022c7d058ff022e82123dc19381c10d4aa4d4902207ab0599bc59ec2f04515d3c4d17e222af1487dda337ecd2cbd31e25944f3924a012102977a001a0a7bbfd1f8a647c7d46e13e8f6920635b328390b43b3303977101149ffffffff01a02c1000000000001976a91493abf1e9e4a20c125b93f93ee39efc16b6e4bc4688ac00000000"
  ],
  [
    "from", [{
      "address": "mgJT8iegL4f9NCgQFeFyfvnSw1Yj4M5Woi",
      "txid": "f50e13cecda9a438ebd7df213a2899e42b2461a18d4630ee773d26b4f2688bdc",
      "vout": 1,
      "scriptPubKey": "76a914089acaba6af8b2b4fb4bed3b747ab1e4e60b496588ac",
      "amount": 0.01
    }],
    "to", ["n3riXZowrjGnY74rx7Hdi9wCyvgyJC28zZ", 990000],
    "sign", ["cPwWtDztEgRCMCU8pMQp4HgphvyadrAsYBrCjXUZuDSmnZkyoyNF", 1],
    "serialize", "0100000001dc8b68f2b4263d77ee30468da161242be499283a21dfd7eb38a4a9cdce130ef5010000006b483045022100c19b280e965cf2857e77315c560b166a267c57d704b7654c2d10c97cc038b6180220328499c01b6a25a40353e3e53e59093f7538b155a41e89a91e0931f106a55c61012103e26b47e7c0d8946954bf9dd4bc7f9e415437eb98271d05f69e78cef8fc6c9a54ffffffff01301b0f00000000001976a914f50f9826ef186074c6fe206cca6b71472ff07ba888ac00000000"
  ],
  [
    "from", [{
      "address":"38nw4sTs3fCH1YiBjYeQAX1t9eWMxpek8Z","txid":"073281b2cc94e879aaf30ea2e92947d9827b270015849d3a5b96a89ee15bfa66","vout":0,"ts":1418877950,"scriptPubKey":"a9144de752833233fe69a20064f29b2ca0f6399c8af387","amount":0.00318512,"confirmationsFromCache":false
    }, ["03411e021210a933c247ea9c8dad4bbead281597d508ad84e899de13e4ce98b4ba", "03bda2c3cc11a391b36e3d695b03ab42b96fe04086b2349056108d858983e60dab", "03c16e6ecf4e02bf9db23d3247ab92db8881f0866133ffb530c3470f6d8dea7330"], 2],
    "to", ["3BazTqvkvEBcWk7J4sbgRnxUw6rjYrogf9", 300299],
    "sign", [["L3y1PAXfjayeB3w6NP7qfNxPbuPpQFA6hd6gj4BUKa2xSdLwoVSZ", "L3a57fiNjqfbXBdYvvGYPQ1HiDX463mwA2xFGTYVkXYdooaz9Z2u"], 1],
    "serialize", "010000000166fa5be19ea8965b3a9d841500277b82d94729e9a20ef3aa79e894ccb281320700000000fdfd000048304502210092c5e238f90928ab2baff990be11a0547533e3bbb02d9c23d7c4d393c32425bc0220749cafac2387fc7b6c5a9555307b6d389f72527c570507ee4869b395945840e30147304402206735e22d5f0a3c7b000b18a64272bc28b9c33730590b8e12daa4853ba50d1e9002202dfef7dbc97f18a3c84b42d2d139077f19476ff9bfe9b0603668a5da9aab642d014c69522103411e021210a933c247ea9c8dad4bbead281597d508ad84e899de13e4ce98b4ba2103bda2c3cc11a391b36e3d695b03ab42b96fe04086b2349056108d858983e60dab2103c16e6ecf4e02bf9db23d3247ab92db8881f0866133ffb530c3470f6d8dea733053aeffffffff010b9504000000000017a9146c8d8b04c6a1e664b1ec20ec932760760c97688e8700000000"
  ],
  [
    "from", [{"address":"3BazTqvkvEBcWk7J4sbgRnxUw6rjYrogf9","txid":"afbf98ca4a43db8915d75184b5204fbe71d916482adfe85cb0ed3635764fc220","vout":0,"ts":1418878108,"scriptPubKey":"a9146c8d8b04c6a1e664b1ec20ec932760760c97688e87","amount":0.00318512,"confirmationsFromCache":false}, ["020483ebb834d91d494a3b649cf0e8f5c9c4fcec5f194ab94341cc99bb440007f2", "0271ebaeef1c2bf0c1a4772d1391eab03e4d96a6e9b48551ab4e4b0d2983eb452b", "03a659828aabe443e2dedabb1db5a22335c5ace5b5b7126998a288d63c99516dd8"], 2
    ],
    "from", [
      {"address":"3BazTqvkvEBcWk7J4sbgRnxUw6rjYrogf9","txid":"dc2e197ab72f71912c39bc23a42d823a3aa8d469fe65eb591c086e60d14c64a0","vout":0,"ts":1418878014,"scriptPubKey":"a9146c8d8b04c6a1e664b1ec20ec932760760c97688e87","amount":0.00300299,"confirmationsFromCache":false}, ["020483ebb834d91d494a3b649cf0e8f5c9c4fcec5f194ab94341cc99bb440007f2", "0271ebaeef1c2bf0c1a4772d1391eab03e4d96a6e9b48551ab4e4b0d2983eb452b", "03a659828aabe443e2dedabb1db5a22335c5ace5b5b7126998a288d63c99516dd8"], 2],
    "to", ["38nw4sTs3fCH1YiBjYeQAX1t9eWMxpek8Z", 150000],
    "to", ["38nw4sTs3fCH1YiBjYeQAX1t9eWMxpek8Z", 160000],
    "change", ["3BazTqvkvEBcWk7J4sbgRnxUw6rjYrogf9"],
    "sign", ["L2U9m5My3cdyN5qX1PH4B7XstGDZFWwyukdX8gj8vsJ3fkrqArQo", 1],
    "sign", ["L4jFVcDaqZCkknP5KQWjCBgiLFxKxRxywNGTucm3jC3ozByZcbZv", 1],
    "serialize", "010000000220c24f763536edb05ce8df2a4816d971be4f20b58451d71589db434aca98bfaf00000000fc0047304402204d8ba40881dee26c60f71b4807899d1e858f614c4b4a11584f987630cfd7b3d30220614c13546df7781ff676e6aaafea0a4bd1fa99847eaad52e37aa1e4c2ced0dd001473044022078bcadce15dac5f6f9a715fce137c34c3759c8a2dbb828ed2df0d04071a040750220250fa375e59165ffccd3e73fe18f8f11e87f3d51511ec6df9d616d7787db7981014c695221020483ebb834d91d494a3b649cf0e8f5c9c4fcec5f194ab94341cc99bb440007f2210271ebaeef1c2bf0c1a4772d1391eab03e4d96a6e9b48551ab4e4b0d2983eb452b2103a659828aabe443e2dedabb1db5a22335c5ace5b5b7126998a288d63c99516dd853aeffffffffa0644cd1606e081c59eb65fe69d4a83a3a822da423bc392c91712fb77a192edc00000000fdfd0000483045022100dcc54490185f85f530abc5c5b9ecc9787d153b016668ec8a3d4e1268cb1e2a790220198cfa5e243cbac8e7378c7df23fb5106d32b4b337363587a6a14fb1f9618ee60147304402205460260a39abf9d734be8d583d97b65e683e654a86739d9cf243e30bb2ff09cb0220097ef55bf223aa5afa1a3211954fb687ee65428b0beaad774d6c03e2a1c21625014c695221020483ebb834d91d494a3b649cf0e8f5c9c4fcec5f194ab94341cc99bb440007f2210271ebaeef1c2bf0c1a4772d1391eab03e4d96a6e9b48551ab4e4b0d2983eb452b2103a659828aabe443e2dedabb1db5a22335c5ace5b5b7126998a288d63c99516dd853aeffffffff03f04902000000000017a9144de752833233fe69a20064f29b2ca0f6399c8af387007102000000000017a9144de752833233fe69a20064f29b2ca0f6399c8af387dba403000000000017a9146c8d8b04c6a1e664b1ec20ec932760760c97688e8700000000"
  ]
]
